{
  "address": "0xDc64a140Aa3E981100a9becA4E685f962f0cF6C9",
  "abi": [
    {
      "inputs": [],
      "stateMutability": "nonpayable",
      "type": "constructor"
    },
    {
      "anonymous": false,
      "inputs": [
        {
          "indexed": true,
          "internalType": "bytes32",
          "name": "role",
          "type": "bytes32"
        },
        {
          "indexed": true,
          "internalType": "bytes32",
          "name": "previousAdminRole",
          "type": "bytes32"
        },
        {
          "indexed": true,
          "internalType": "bytes32",
          "name": "newAdminRole",
          "type": "bytes32"
        }
      ],
      "name": "RoleAdminChanged",
      "type": "event"
    },
    {
      "anonymous": false,
      "inputs": [
        {
          "indexed": true,
          "internalType": "bytes32",
          "name": "role",
          "type": "bytes32"
        },
        {
          "indexed": true,
          "internalType": "address",
          "name": "account",
          "type": "address"
        },
        {
          "indexed": true,
          "internalType": "address",
          "name": "sender",
          "type": "address"
        }
      ],
      "name": "RoleGranted",
      "type": "event"
    },
    {
      "anonymous": false,
      "inputs": [
        {
          "indexed": true,
          "internalType": "bytes32",
          "name": "role",
          "type": "bytes32"
        },
        {
          "indexed": true,
          "internalType": "address",
          "name": "account",
          "type": "address"
        },
        {
          "indexed": true,
          "internalType": "address",
          "name": "sender",
          "type": "address"
        }
      ],
      "name": "RoleRevoked",
      "type": "event"
    },
    {
      "inputs": [],
      "name": "ADMINISTRATOR",
      "outputs": [
        {
          "internalType": "bytes32",
          "name": "",
          "type": "bytes32"
        }
      ],
      "stateMutability": "view",
      "type": "function"
    },
    {
      "inputs": [],
      "name": "CITIZEN",
      "outputs": [
        {
          "internalType": "bytes32",
          "name": "",
          "type": "bytes32"
        }
      ],
      "stateMutability": "view",
      "type": "function"
    },
    {
      "inputs": [],
      "name": "DEFAULT_ADMIN_ROLE",
      "outputs": [
        {
          "internalType": "bytes32",
          "name": "",
          "type": "bytes32"
        }
      ],
      "stateMutability": "view",
      "type": "function"
    },
    {
      "inputs": [],
      "name": "POLITICAL_ACTOR",
      "outputs": [
        {
          "internalType": "bytes32",
          "name": "",
          "type": "bytes32"
        }
      ],
      "stateMutability": "view",
      "type": "function"
    },
    {
      "inputs": [],
      "name": "SUPER_ADMINISTRATOR",
      "outputs": [
        {
          "internalType": "bytes32",
          "name": "",
          "type": "bytes32"
        }
      ],
      "stateMutability": "view",
      "type": "function"
    },
    {
      "inputs": [
        {
          "internalType": "uint256",
          "name": "",
          "type": "uint256"
        }
      ],
      "name": "admins",
      "outputs": [
        {
          "internalType": "address",
          "name": "",
          "type": "address"
        }
      ],
      "stateMutability": "view",
      "type": "function"
    },
    {
      "inputs": [
        {
          "internalType": "uint256",
          "name": "",
          "type": "uint256"
        }
      ],
      "name": "citizens",
      "outputs": [
        {
          "internalType": "address",
          "name": "",
          "type": "address"
        }
      ],
      "stateMutability": "view",
      "type": "function"
    },
    {
      "inputs": [],
      "name": "getAdminsSize",
      "outputs": [
        {
          "internalType": "uint256",
          "name": "",
          "type": "uint256"
        }
      ],
      "stateMutability": "view",
      "type": "function"
    },
    {
      "inputs": [],
      "name": "getCitizensSize",
      "outputs": [
        {
          "internalType": "uint256",
          "name": "",
          "type": "uint256"
        }
      ],
      "stateMutability": "view",
      "type": "function"
    },
    {
      "inputs": [],
      "name": "getPoliticalActorsSize",
      "outputs": [
        {
          "internalType": "uint256",
          "name": "",
          "type": "uint256"
        }
      ],
      "stateMutability": "view",
      "type": "function"
    },
    {
      "inputs": [
        {
          "internalType": "bytes32",
          "name": "role",
          "type": "bytes32"
        }
      ],
      "name": "getRoleAdmin",
      "outputs": [
        {
          "internalType": "bytes32",
          "name": "",
          "type": "bytes32"
        }
      ],
      "stateMutability": "view",
      "type": "function"
    },
    {
      "inputs": [
        {
          "internalType": "address",
          "name": "account",
          "type": "address"
        }
      ],
      "name": "sendGrantAdministratorRoleApproval",
      "outputs": [],
      "stateMutability": "nonpayable",
      "type": "function"
    },
    {
      "inputs": [
        {
          "internalType": "address",
          "name": "account",
          "type": "address"
        }
      ],
      "name": "grantCitizenRole",
      "outputs": [],
      "stateMutability": "nonpayable",
      "type": "function"
    },
    {
      "inputs": [
        {
          "internalType": "address",
          "name": "account",
          "type": "address"
        },
        {
          "internalType": "uint16",
          "name": "_votingCycleTotalCredit",
          "type": "uint16"
        }
      ],
      "name": "grantPoliticalActorRole",
      "outputs": [],
      "stateMutability": "nonpayable",
      "type": "function"
    },
    {
      "inputs": [
        {
          "internalType": "bytes32",
          "name": "role",
          "type": "bytes32"
        },
        {
          "internalType": "address",
          "name": "account",
          "type": "address"
        }
      ],
      "name": "grantRole",
      "outputs": [],
      "stateMutability": "nonpayable",
      "type": "function"
    },
    {
      "inputs": [
        {
          "internalType": "bytes32",
          "name": "role",
          "type": "bytes32"
        },
        {
          "internalType": "address",
          "name": "account",
          "type": "address"
        }
      ],
      "name": "hasRole",
      "outputs": [
        {
          "internalType": "bool",
          "name": "",
          "type": "bool"
        }
      ],
      "stateMutability": "view",
      "type": "function"
    },
    {
      "inputs": [
        {
          "internalType": "bytes32",
          "name": "role",
          "type": "bytes32"
        },
        {
          "internalType": "address",
          "name": "account",
          "type": "address"
        }
      ],
      "name": "hasRoleWithSwitch",
      "outputs": [
        {
          "internalType": "bool",
          "name": "",
          "type": "bool"
        }
      ],
      "stateMutability": "view",
      "type": "function"
    },
    {
      "inputs": [
        {
          "internalType": "address",
          "name": "",
          "type": "address"
        }
      ],
      "name": "politicalActorProfiles",
      "outputs": [
        {
          "internalType": "address",
          "name": "account",
          "type": "address"
        },
        {
          "internalType": "uint16",
          "name": "votingCycleTotalCredits",
          "type": "uint16"
        }
      ],
      "stateMutability": "view",
      "type": "function"
    },
    {
      "inputs": [
        {
          "internalType": "uint256",
          "name": "",
          "type": "uint256"
        }
      ],
      "name": "politicalActors",
      "outputs": [
        {
          "internalType": "address",
          "name": "",
          "type": "address"
        }
      ],
      "stateMutability": "view",
      "type": "function"
    },
    {
      "inputs": [
        {
          "internalType": "bytes32",
          "name": "role",
          "type": "bytes32"
        },
        {
          "internalType": "address",
          "name": "account",
          "type": "address"
        }
      ],
      "name": "renounceRole",
      "outputs": [],
      "stateMutability": "nonpayable",
      "type": "function"
    },
    {
      "inputs": [
        {
          "internalType": "bytes32",
          "name": "role",
          "type": "bytes32"
        },
        {
          "internalType": "address",
          "name": "account",
          "type": "address"
        }
      ],
      "name": "revokeRole",
      "outputs": [],
      "stateMutability": "nonpayable",
      "type": "function"
    }
  ],
  "transactionHash": "0x2e3c78c1a8f802d9b568b632d67b88e9b1e8ea64a8ffc76316d8974dd09ff1e0",
  "args": [],
  "numDeployments": 1,
  "solcInputHash": "9cbb7ce2c43328f1b5daa323ec52635c",
  "bytecode": "0x608060405234801561001057600080fd5b506002805460018082019092557f405787fa12a823e0f2b7631cc41b3ba8828b3321ca811111fa75cd3aa3bb5ace018054336001600160a01b031991821681179092556005805493840181556000527f036b6384b5eca791c62761152d0c79bb0604c104a5fb6f4eb0703f3154bb3db0909201805490921681179091556100b8907fd9d79e7f33c5bfc4f44a41571391ba287235a250c1b3651d666e8b35b4d8ad9a90610111565b6100e27fb346b2ddc13f08bd9685b83a95304a79a2caac0aa7aa64129e1ae9f4361b466133610111565b61010c7f313691be6e710b5e9c97c695d02c9e24926f986402f826152f3b2970694f72c933610111565b61016a565b6000828152602081815260408083206001600160a01b0385168085529252808320805460ff1916600117905551339285917f2f8788117e7eff1d82e926ec794901d17c78024a50270940304540a733656f0d9190a45050565b610deb806101796000396000f3fe608060405234801561001057600080fd5b50600436106101375760003560e01c806361172eb3116100b8578063a217fddf1161007c578063a217fddf146102a0578063a32fa5b3146102a8578063bbc39128146102bb578063d13b9dc4146102c3578063d547741f1461031b578063d9b196221461032e57600080fd5b806361172eb31461022f57806367fadfd91461024257806381c184d31461025757806391d148541461026a57806393e0eb031461028d57600080fd5b8063248a9ca3116100ff578063248a9ca3146101bd5780632f2ff15d146101dd57806336568abe146101f2578063532da8e31461020557806359fe72791461021a57600080fd5b806309a34f001461013c57806309d39b791461016c57806314bfd6d01461017f57806315382ab71461019257806319d3cfd4146101b5575b600080fd5b61014f61014a366004610b34565b610336565b6040516001600160a01b0390911681526020015b60405180910390f35b61014f61017a366004610b34565b610360565b61014f61018d366004610b34565b610370565b6101a7600080516020610d9683398151915281565b604051908152602001610163565b6005546101a7565b6101a76101cb366004610b34565b60009081526001602052604090205490565b6101f06101eb366004610b69565b610380565b005b6101f0610200366004610b69565b61041d565b6101a7600080516020610d5683398151915281565b6101a7600080516020610d3683398151915281565b6101f061023d366004610b95565b61047f565b6101a7600080516020610d7683398151915281565b6101f0610265366004610bb0565b61057d565b61027d610278366004610b69565b6106cc565b6040519015158152602001610163565b6101f061029b366004610b95565b6106f7565b6101a7600081565b61027d6102b6366004610b69565b6107f3565b6003546101a7565b6102f96102d1366004610b95565b6004602052600090815260409020546001600160a01b03811690600160a01b900461ffff1682565b604080516001600160a01b03909316835261ffff909116602083015201610163565b6101f0610329366004610b69565b610845565b6002546101a7565b6005818154811061034657600080fd5b6000918252602090912001546001600160a01b0316905081565b6003818154811061034657600080fd5b6002818154811061034657600080fd5b600082815260016020526040902054610399903361085a565b6000828152602081815260408083206001600160a01b038516845290915290205460ff161561040f5760405162461bcd60e51b815260206004820152601d60248201527f43616e206f6e6c79206772616e7420746f206e6f6e20686f6c6465727300000060448201526064015b60405180910390fd5b61041982826108d8565b5050565b336001600160a01b038216146104755760405162461bcd60e51b815260206004820152601a60248201527f43616e206f6e6c792072656e6f756e636520666f722073656c660000000000006044820152606401610406565b6104198282610931565b600080516020610d36833981519152610498813361085a565b6104b0600080516020610d76833981519152836106cc565b156105125760405162461bcd60e51b815260206004820152602c60248201527f436974697a656e20726f6c6520746f2074686973206164647265737320616c7260448201526b1958591e4819dc985b9d195960a21b6064820152608401610406565b61052a600080516020610d76833981519152836108d8565b50600580546001810182556000919091527f036b6384b5eca791c62761152d0c79bb0604c104a5fb6f4eb0703f3154bb3db00180546001600160a01b0319166001600160a01b0392909216919091179055565b600080516020610d96833981519152610596813361085a565b6105ae600080516020610d56833981519152846106cc565b156106175760405162461bcd60e51b815260206004820152603360248201527f506f6c69746963616c206163746f7220726f6c6520746f2074686973206164646044820152721c995cdcc8185b1c99591e4819dc985b9d1959606a1b6064820152608401610406565b61062f600080516020610d56833981519152846108d8565b506040805180820182526001600160a01b0393841680825261ffff93841660208084019182526000838152600490915293842092518354915196166001600160b01b031990911617600160a01b9590941694909402929092179091556003805460018101825591527fc2575a0e9e593c00f959f8c92f12db2869c3395a3b0502d05e2516446f71f85b0180546001600160a01b0319169091179055565b6000828152602081815260408083206001600160a01b038516845290915290205460ff165b92915050565b600080516020610d96833981519152610710813361085a565b610728600080516020610d36833981519152836106cc565b156107885760405162461bcd60e51b815260206004820152602a60248201527f41646d696e20726f6c6520746f2074686973206164647265737320616c726561604482015269191e4819dc985b9d195960b21b6064820152608401610406565b6107a0600080516020610d36833981519152836108d8565b50600280546001810182556000919091527f405787fa12a823e0f2b7631cc41b3ba8828b3321ca811111fa75cd3aa3bb5ace0180546001600160a01b0319166001600160a01b0392909216919091179055565b60008281526020818152604080832083805290915281205460ff1661083c57506000828152602081815260408083206001600160a01b038516845290915290205460ff166106f1565b50600192915050565b60008281526001602052604090205461047590335b6000828152602081815260408083206001600160a01b038516845290915290205460ff1661041957610896816001600160a01b03166014610991565b6108a1836020610991565b6040516020016108b2929190610c12565b60408051601f198184030181529082905262461bcd60e51b825261040691600401610c7f565b6000828152602081815260408083206001600160a01b0385168085529252808320805460ff1916600117905551339285917f2f8788117e7eff1d82e926ec794901d17c78024a50270940304540a733656f0d9190a45050565b61093b828261085a565b6000828152602081815260408083206001600160a01b0385168085529252808320805460ff1916905551339285917ff6391f5c32d9c69d2a47ea670b442974b53935d1edc7fd64eb21e047a839171b9190a45050565b606060006109a0836002610cc8565b6109ab906002610cdf565b67ffffffffffffffff8111156109c3576109c3610cf2565b6040519080825280601f01601f1916602001820160405280156109ed576020820181803683370190505b509050600360fc1b81600081518110610a0857610a08610d08565b60200101906001600160f81b031916908160001a905350600f60fb1b81600181518110610a3757610a37610d08565b60200101906001600160f81b031916908160001a9053506000610a5b846002610cc8565b610a66906001610cdf565b90505b6001811115610ade576f181899199a1a9b1b9c1cb0b131b232b360811b85600f1660108110610a9a57610a9a610d08565b1a60f81b828281518110610ab057610ab0610d08565b60200101906001600160f81b031916908160001a90535060049490941c93610ad781610d1e565b9050610a69565b508315610b2d5760405162461bcd60e51b815260206004820181905260248201527f537472696e67733a20686578206c656e67746820696e73756666696369656e746044820152606401610406565b9392505050565b600060208284031215610b4657600080fd5b5035919050565b80356001600160a01b0381168114610b6457600080fd5b919050565b60008060408385031215610b7c57600080fd5b82359150610b8c60208401610b4d565b90509250929050565b600060208284031215610ba757600080fd5b610b2d82610b4d565b60008060408385031215610bc357600080fd5b610bcc83610b4d565b9150602083013561ffff81168114610be357600080fd5b809150509250929050565b60005b83811015610c09578181015183820152602001610bf1565b50506000910152565b7402832b936b4b9b9b4b7b7399d1030b1b1b7bab73a1605d1b815260008351610c42816015850160208801610bee565b7001034b99036b4b9b9b4b733903937b6329607d1b6015918401918201528351610c73816026840160208801610bee565b01602601949350505050565b6020815260008251806020840152610c9e816040850160208701610bee565b601f01601f19169190910160400192915050565b634e487b7160e01b600052601160045260246000fd5b80820281158282048414176106f1576106f1610cb2565b808201808211156106f1576106f1610cb2565b634e487b7160e01b600052604160045260246000fd5b634e487b7160e01b600052603260045260246000fd5b600081610d2d57610d2d610cb2565b50600019019056feb346b2ddc13f08bd9685b83a95304a79a2caac0aa7aa64129e1ae9f4361b46619f70d138cbbd87297896478196b4493d9dceaca01f5883ecbd7bee66d300348d313691be6e710b5e9c97c695d02c9e24926f986402f826152f3b2970694f72c9d9d79e7f33c5bfc4f44a41571391ba287235a250c1b3651d666e8b35b4d8ad9aa26469706673582212205c56eddc916bad6f28f9d41f0f94dd4b1c418bd24f8f0b4456bc5df6e4c0042c64736f6c63430008130033",
  "devdoc": {
    "author": "Mrton Sndor Horvth, email: hmartonsandor{@}gmail.com",
    "events": {
      "RoleAdminChanged(bytes32,bytes32,bytes32)": {
        "details": "Emitted when `newAdminRole` is set as ``role``'s admin role, replacing `previousAdminRole` `DEFAULT_ADMIN_ROLE` is the starting admin for all roles, despite {RoleAdminChanged} not being emitted signaling this. _Available since v3.1._"
      },
      "RoleGranted(bytes32,address,address)": {
        "details": "Emitted when `account` is granted `role`. `sender` is the account that originated the contract call, an admin role bearer except when using {AccessControl-_setupRole}."
      },
      "RoleRevoked(bytes32,address,address)": {
        "details": "Emitted when `account` is revoked `role`. `sender` is the account that originated the contract call:   - if using `revokeRole`, it is the admin role bearer   - if using `renounceRole`, it is the role bearer (i.e. `account`)"
      }
    },
    "kind": "dev",
    "methods": {
      "getRoleAdmin(bytes32)": {
        "details": "See {grantRole} and {revokeRole}.                  To change a role's admin, use {_setRoleAdmin}.",
        "params": {
          "role": "keccak256 hash of the role. e.g. keccak256(\"TRANSFER_ROLE\")"
        }
      },
      "grantRole(bytes32,address)": {
        "details": "Caller must have admin role for the `role`.                  Emits {RoleGranted Event}.",
        "params": {
          "account": "Address of the account to which the role is being granted.",
          "role": "keccak256 hash of the role. e.g. keccak256(\"TRANSFER_ROLE\")"
        }
      },
      "hasRole(bytes32,address)": {
        "details": "Returns `true` if `account` has been granted `role`.",
        "params": {
          "account": "Address of the account for which the role is being checked.",
          "role": "keccak256 hash of the role. e.g. keccak256(\"TRANSFER_ROLE\")"
        }
      },
      "hasRoleWithSwitch(bytes32,address)": {
        "details": "Returns `true` if `account` has been granted `role`.                  Role restrictions can be swtiched on and off:                      - If address(0) has ROLE, then the ROLE restrictions                        don't apply.                      - If address(0) does not have ROLE, then the ROLE                        restrictions will apply.",
        "params": {
          "account": "Address of the account for which the role is being checked.",
          "role": "keccak256 hash of the role. e.g. keccak256(\"TRANSFER_ROLE\")"
        }
      },
      "renounceRole(bytes32,address)": {
        "details": "Caller must have the `role`, with caller being the same as `account`.                  Emits {RoleRevoked Event}.",
        "params": {
          "account": "Address of the account from which the role is being revoked.",
          "role": "keccak256 hash of the role. e.g. keccak256(\"TRANSFER_ROLE\")"
        }
      },
      "revokeRole(bytes32,address)": {
        "details": "Caller must have admin role for the `role`.                  Emits {RoleRevoked Event}.",
        "params": {
          "account": "Address of the account from which the role is being revoked.",
          "role": "keccak256 hash of the role. e.g. keccak256(\"TRANSFER_ROLE\")"
        }
      }
    },
    "title": "Balanced Voting System:Roles - contract",
    "version": 1
  },
  "userdoc": {
    "kind": "user",
    "methods": {
      "getRoleAdmin(bytes32)": {
        "notice": "Returns the admin role that controls the specified role."
      },
      "grantRole(bytes32,address)": {
        "notice": "Grants a role to an account, if not previously granted."
      },
      "hasRole(bytes32,address)": {
        "notice": "Checks whether an account has a particular role."
      },
      "hasRoleWithSwitch(bytes32,address)": {
        "notice": "Checks whether an account has a particular role;                  role restrictions can be swtiched on and off."
      },
      "renounceRole(bytes32,address)": {
        "notice": "Revokes role from the account."
      },
      "revokeRole(bytes32,address)": {
        "notice": "Revokes role from an account."
      }
    },
    "notice": "@dev",
    "version": 1
  },
  "storageLayout": {
    "storage": [
      {
        "astId": 59,
        "contract": "contracts/BVS_Roles.sol:BVS_Roles",
        "label": "_hasRole",
        "offset": 0,
        "slot": "0",
        "type": "t_mapping(t_bytes32,t_mapping(t_address,t_bool))"
      },
      {
        "astId": 64,
        "contract": "contracts/BVS_Roles.sol:BVS_Roles",
        "label": "_getRoleAdmin",
        "offset": 0,
        "slot": "1",
        "type": "t_mapping(t_bytes32,t_bytes32)"
      },
      {
        "astId": 1810,
        "contract": "contracts/BVS_Roles.sol:BVS_Roles",
        "label": "admins",
        "offset": 0,
        "slot": "2",
        "type": "t_array(t_address)dyn_storage"
      },
      {
        "astId": 1813,
        "contract": "contracts/BVS_Roles.sol:BVS_Roles",
        "label": "politicalActors",
        "offset": 0,
        "slot": "3",
        "type": "t_array(t_address)dyn_storage"
      },
      {
        "astId": 1818,
        "contract": "contracts/BVS_Roles.sol:BVS_Roles",
        "label": "politicalActorProfiles",
        "offset": 0,
        "slot": "4",
        "type": "t_mapping(t_address,t_struct(PoliticalActorProfile)1807_storage)"
      },
      {
        "astId": 1821,
        "contract": "contracts/BVS_Roles.sol:BVS_Roles",
        "label": "citizens",
        "offset": 0,
        "slot": "5",
        "type": "t_array(t_address)dyn_storage"
      }
    ],
    "types": {
      "t_address": {
        "encoding": "inplace",
        "label": "address",
        "numberOfBytes": "20"
      },
      "t_array(t_address)dyn_storage": {
        "base": "t_address",
        "encoding": "dynamic_array",
        "label": "address[]",
        "numberOfBytes": "32"
      },
      "t_bool": {
        "encoding": "inplace",
        "label": "bool",
        "numberOfBytes": "1"
      },
      "t_bytes32": {
        "encoding": "inplace",
        "label": "bytes32",
        "numberOfBytes": "32"
      },
      "t_mapping(t_address,t_bool)": {
        "encoding": "mapping",
        "key": "t_address",
        "label": "mapping(address => bool)",
        "numberOfBytes": "32",
        "value": "t_bool"
      },
      "t_mapping(t_address,t_struct(PoliticalActorProfile)1807_storage)": {
        "encoding": "mapping",
        "key": "t_address",
        "label": "mapping(address => struct BVS_Roles.PoliticalActorProfile)",
        "numberOfBytes": "32",
        "value": "t_struct(PoliticalActorProfile)1807_storage"
      },
      "t_mapping(t_bytes32,t_bytes32)": {
        "encoding": "mapping",
        "key": "t_bytes32",
        "label": "mapping(bytes32 => bytes32)",
        "numberOfBytes": "32",
        "value": "t_bytes32"
      },
      "t_mapping(t_bytes32,t_mapping(t_address,t_bool))": {
        "encoding": "mapping",
        "key": "t_bytes32",
        "label": "mapping(bytes32 => mapping(address => bool))",
        "numberOfBytes": "32",
        "value": "t_mapping(t_address,t_bool)"
      },
      "t_struct(PoliticalActorProfile)1807_storage": {
        "encoding": "inplace",
        "label": "struct BVS_Roles.PoliticalActorProfile",
        "members": [
          {
            "astId": 1804,
            "contract": "contracts/BVS_Roles.sol:BVS_Roles",
            "label": "account",
            "offset": 0,
            "slot": "0",
            "type": "t_address"
          },
          {
            "astId": 1806,
            "contract": "contracts/BVS_Roles.sol:BVS_Roles",
            "label": "votingCycleTotalCredits",
            "offset": 20,
            "slot": "0",
            "type": "t_uint16"
          }
        ],
        "numberOfBytes": "32"
      },
      "t_uint16": {
        "encoding": "inplace",
        "label": "uint16",
        "numberOfBytes": "2"
      }
    }
  }
}