{
  "address": "0x9fE46736679d2D9a65F0992F2272dE9f3c7fa6e0",
  "abi": [
    {
      "inputs": [
        {
          "internalType": "address",
          "name": "priceFeedAddress",
          "type": "address"
        }
      ],
      "stateMutability": "nonpayable",
      "type": "constructor"
    },
    {
      "inputs": [],
      "name": "DECIMALS",
      "outputs": [
        {
          "internalType": "uint256",
          "name": "",
          "type": "uint256"
        }
      ],
      "stateMutability": "view",
      "type": "function"
    },
    {
      "inputs": [
        {
          "internalType": "address",
          "name": "",
          "type": "address"
        }
      ],
      "name": "addressToAmountFunded",
      "outputs": [
        {
          "internalType": "address",
          "name": "account",
          "type": "address"
        },
        {
          "internalType": "string",
          "name": "email",
          "type": "string"
        },
        {
          "internalType": "uint256",
          "name": "fundedAmountInUsd",
          "type": "uint256"
        },
        {
          "internalType": "enum BVS_Funding.FundingSizeLevels",
          "name": "fundSizeLevel",
          "type": "uint8"
        },
        {
          "internalType": "bool",
          "name": "exists",
          "type": "bool"
        }
      ],
      "stateMutability": "view",
      "type": "function"
    },
    {
      "inputs": [
        {
          "internalType": "string",
          "name": "email",
          "type": "string"
        }
      ],
      "name": "fund",
      "outputs": [],
      "stateMutability": "payable",
      "type": "function"
    },
    {
      "inputs": [
        {
          "internalType": "uint256",
          "name": "",
          "type": "uint256"
        }
      ],
      "name": "funders",
      "outputs": [
        {
          "internalType": "address",
          "name": "",
          "type": "address"
        }
      ],
      "stateMutability": "view",
      "type": "function"
    },
    {
      "inputs": [],
      "name": "getNumberOfFunders",
      "outputs": [
        {
          "internalType": "uint256",
          "name": "",
          "type": "uint256"
        }
      ],
      "stateMutability": "view",
      "type": "function"
    },
    {
      "inputs": [
        {
          "internalType": "uint256",
          "name": "amount",
          "type": "uint256"
        }
      ],
      "name": "getfundSizeLevel",
      "outputs": [
        {
          "internalType": "enum BVS_Funding.FundingSizeLevels",
          "name": "",
          "type": "uint8"
        }
      ],
      "stateMutability": "view",
      "type": "function"
    },
    {
      "inputs": [],
      "name": "priceFeed",
      "outputs": [
        {
          "internalType": "contract AggregatorV3Interface",
          "name": "",
          "type": "address"
        }
      ],
      "stateMutability": "view",
      "type": "function"
    },
    {
      "stateMutability": "payable",
      "type": "receive"
    }
  ],
  "transactionHash": "0xd77d1b627821ac4fe2a958067d877ad7a845e98e3a4334330e2b32eb50c45860",
  "args": [
    "0x5FbDB2315678afecb367f032d93F642f64180aa3"
  ],
  "numDeployments": 1,
  "solcInputHash": "9cbb7ce2c43328f1b5daa323ec52635c",
  "bytecode": "0x61016060405260a08061001b670de0b6b3a76400006064610105565b8152602001610034670de0b6b3a76400006103e8610105565b815260200161004d670de0b6b3a7640000612710610105565b8152602001610067670de0b6b3a7640000620186a0610105565b8152602001610081670de0b6b3a76400006207a120610105565b815260200161009b670de0b6b3a7640000620f4240610105565b90528051600055602081015160015560408101516002556060810151600355608081015160045560a001516005553480156100d557600080fd5b50604051610ba5380380610ba58339810160408190526100f491610130565b6001600160a01b0316608052610160565b808202811582820484141761012a57634e487b7160e01b600052601160045260246000fd5b92915050565b60006020828403121561014257600080fd5b81516001600160a01b038116811461015957600080fd5b9392505050565b608051610a246101816000396000818160f701526102630152610a246000f3fe6080604052600436106100645760003560e01c80632e0f2625146100705780633e47d6f31461009f57806373451f65146100d0578063741bef1a146100e5578063bdfc1a2414610131578063cce8c26a1461015e578063dc0d3dff1461017357600080fd5b3661006b57005b600080fd5b34801561007c57600080fd5b5061008c670de0b6b3a764000081565b6040519081526020015b60405180910390f35b3480156100ab57600080fd5b506100bf6100ba3660046105d9565b610193565b60405161009695949392919061063a565b6100e36100de3660046106cc565b61025b565b005b3480156100f157600080fd5b506101197f000000000000000000000000000000000000000000000000000000000000000081565b6040516001600160a01b039091168152602001610096565b34801561013d57600080fd5b5061015161014c36600461077d565b610494565b6040516100969190610796565b34801561016a57600080fd5b5060075461008c565b34801561017f57600080fd5b5061011961018e36600461077d565b6104f4565b600660205260009081526040902080546001820180546001600160a01b0390921692916101bf906107a4565b80601f01602080910402602001604051908101604052809291908181526020018280546101eb906107a4565b80156102385780601f1061020d57610100808354040283529160200191610238565b820191906000526020600020905b81548152906001019060200180831161021b57829003601f168201915b50505050600283015460039093015491929160ff80821692506101009091041685565b6000610287347f000000000000000000000000000000000000000000000000000000000000000061051e565b6000549091508110156102e05760405162461bcd60e51b815260206004820152601b60248201527f596f75206e65656420746f207370656e64206d6f726520455448210000000000604482015260640160405180910390fd5b33600090815260066020526040902060030154610100900460ff1661041c57600780546001810182556000919091527fa66cc928b5edb82af9bd49922954155ab7b0942694bea4ce44661d9a8736c6880180546001600160a01b031916339081179091556040805160a0810182529182526020820184905281018290526060810161036a83610494565b600581111561037b5761037b610602565b8152600160209182018190523360009081526006835260409020835181546001600160a01b0319166001600160a01b0390911617815591830151908201906103c3908261082d565b5060408201516002820155606082015160038201805460ff191660018360058111156103f1576103f1610602565b021790555060809190910151600390910180549115156101000261ff00199092169190911790555050565b336000908152600660205260408120600201805483929061043e908490610903565b90915550503360009081526006602052604090206002015461045f90610494565b336000908152600660205260409020600301805460ff1916600183600581111561048b5761048b610602565b02179055505050565b60055460009082106104a857506005919050565b60045482106104b957506004919050565b60035482106104ca57506003919050565b60025482106104db57506002919050565b60015482106104ec57506001919050565b506000919050565b6007818154811061050457600080fd5b6000918252602090912001546001600160a01b0316905081565b60008061052a83610556565b90506000670de0b6b3a76400006105418684610916565b61054b919061092d565b925050505b92915050565b600080826001600160a01b031663feaf968c6040518163ffffffff1660e01b815260040160a060405180830381865afa158015610597573d6000803e3d6000fd5b505050506040513d601f19601f820116820180604052508101906105bb919061096e565b505050915050806402540be4006105d291906109be565b9392505050565b6000602082840312156105eb57600080fd5b81356001600160a01b03811681146105d257600080fd5b634e487b7160e01b600052602160045260246000fd5b6006811061063657634e487b7160e01b600052602160045260246000fd5b9052565b60018060a01b03861681526000602060a08184015286518060a085015260005b818110156106765788810183015185820160c00152820161065a565b50600060c0828601015260c0601f19601f830116850101925050508460408301526106a46060830185610618565b82151560808301529695505050505050565b634e487b7160e01b600052604160045260246000fd5b6000602082840312156106de57600080fd5b813567ffffffffffffffff808211156106f657600080fd5b818401915084601f83011261070a57600080fd5b81358181111561071c5761071c6106b6565b604051601f8201601f19908116603f01168101908382118183101715610744576107446106b6565b8160405282815287602084870101111561075d57600080fd5b826020860160208301376000928101602001929092525095945050505050565b60006020828403121561078f57600080fd5b5035919050565b602081016105508284610618565b600181811c908216806107b857607f821691505b6020821081036107d857634e487b7160e01b600052602260045260246000fd5b50919050565b601f82111561082857600081815260208120601f850160051c810160208610156108055750805b601f850160051c820191505b8181101561082457828155600101610811565b5050505b505050565b815167ffffffffffffffff811115610847576108476106b6565b61085b8161085584546107a4565b846107de565b602080601f83116001811461089057600084156108785750858301515b600019600386901b1c1916600185901b178555610824565b600085815260208120601f198616915b828110156108bf578886015182559484019460019091019084016108a0565b50858210156108dd5787850151600019600388901b60f8161c191681555b5050505050600190811b01905550565b634e487b7160e01b600052601160045260246000fd5b80820180821115610550576105506108ed565b8082028115828204841417610550576105506108ed565b60008261094a57634e487b7160e01b600052601260045260246000fd5b500490565b805169ffffffffffffffffffff8116811461096957600080fd5b919050565b600080600080600060a0868803121561098657600080fd5b61098f8661094f565b94506020860151935060408601519250606086015191506109b26080870161094f565b90509295509295909350565b80820260008212600160ff1b841416156109da576109da6108ed565b8181058314821517610550576105506108ed56fea2646970667358221220d9fe393eb079ffdaad8546f4736c4000bc929c7735cc9ebce85bb142e5824b0164736f6c63430008130033",
  "devdoc": {
    "author": "Mrton Sndor Horvth, email: hmartonsandor{@}gmail.com",
    "kind": "dev",
    "methods": {},
    "title": "Balanced Voting System - Funding - contract",
    "version": 1
  },
  "userdoc": {
    "kind": "user",
    "methods": {},
    "notice": "@dev",
    "version": 1
  },
  "storageLayout": {
    "storage": [
      {
        "astId": 1604,
        "contract": "contracts/BVS_Funding.sol:BVS_Funding",
        "label": "fundSizes",
        "offset": 0,
        "slot": "0",
        "type": "t_struct(FundSizes)1564_storage"
      },
      {
        "astId": 1612,
        "contract": "contracts/BVS_Funding.sol:BVS_Funding",
        "label": "addressToAmountFunded",
        "offset": 0,
        "slot": "6",
        "type": "t_mapping(t_address,t_struct(FunderTicket)1576_storage)"
      },
      {
        "astId": 1615,
        "contract": "contracts/BVS_Funding.sol:BVS_Funding",
        "label": "funders",
        "offset": 0,
        "slot": "7",
        "type": "t_array(t_address)dyn_storage"
      }
    ],
    "types": {
      "t_address": {
        "encoding": "inplace",
        "label": "address",
        "numberOfBytes": "20"
      },
      "t_array(t_address)dyn_storage": {
        "base": "t_address",
        "encoding": "dynamic_array",
        "label": "address[]",
        "numberOfBytes": "32"
      },
      "t_bool": {
        "encoding": "inplace",
        "label": "bool",
        "numberOfBytes": "1"
      },
      "t_enum(FundingSizeLevels)1551": {
        "encoding": "inplace",
        "label": "enum BVS_Funding.FundingSizeLevels",
        "numberOfBytes": "1"
      },
      "t_mapping(t_address,t_struct(FunderTicket)1576_storage)": {
        "encoding": "mapping",
        "key": "t_address",
        "label": "mapping(address => struct BVS_Funding.FunderTicket)",
        "numberOfBytes": "32",
        "value": "t_struct(FunderTicket)1576_storage"
      },
      "t_string_storage": {
        "encoding": "bytes",
        "label": "string",
        "numberOfBytes": "32"
      },
      "t_struct(FundSizes)1564_storage": {
        "encoding": "inplace",
        "label": "struct BVS_Funding.FundSizes",
        "members": [
          {
            "astId": 1553,
            "contract": "contracts/BVS_Funding.sol:BVS_Funding",
            "label": "small",
            "offset": 0,
            "slot": "0",
            "type": "t_uint256"
          },
          {
            "astId": 1555,
            "contract": "contracts/BVS_Funding.sol:BVS_Funding",
            "label": "medium",
            "offset": 0,
            "slot": "1",
            "type": "t_uint256"
          },
          {
            "astId": 1557,
            "contract": "contracts/BVS_Funding.sol:BVS_Funding",
            "label": "large",
            "offset": 0,
            "slot": "2",
            "type": "t_uint256"
          },
          {
            "astId": 1559,
            "contract": "contracts/BVS_Funding.sol:BVS_Funding",
            "label": "xlarge",
            "offset": 0,
            "slot": "3",
            "type": "t_uint256"
          },
          {
            "astId": 1561,
            "contract": "contracts/BVS_Funding.sol:BVS_Funding",
            "label": "xxlarge",
            "offset": 0,
            "slot": "4",
            "type": "t_uint256"
          },
          {
            "astId": 1563,
            "contract": "contracts/BVS_Funding.sol:BVS_Funding",
            "label": "xxxlarge",
            "offset": 0,
            "slot": "5",
            "type": "t_uint256"
          }
        ],
        "numberOfBytes": "192"
      },
      "t_struct(FunderTicket)1576_storage": {
        "encoding": "inplace",
        "label": "struct BVS_Funding.FunderTicket",
        "members": [
          {
            "astId": 1566,
            "contract": "contracts/BVS_Funding.sol:BVS_Funding",
            "label": "account",
            "offset": 0,
            "slot": "0",
            "type": "t_address"
          },
          {
            "astId": 1568,
            "contract": "contracts/BVS_Funding.sol:BVS_Funding",
            "label": "email",
            "offset": 0,
            "slot": "1",
            "type": "t_string_storage"
          },
          {
            "astId": 1570,
            "contract": "contracts/BVS_Funding.sol:BVS_Funding",
            "label": "fundedAmountInUsd",
            "offset": 0,
            "slot": "2",
            "type": "t_uint256"
          },
          {
            "astId": 1573,
            "contract": "contracts/BVS_Funding.sol:BVS_Funding",
            "label": "fundSizeLevel",
            "offset": 0,
            "slot": "3",
            "type": "t_enum(FundingSizeLevels)1551"
          },
          {
            "astId": 1575,
            "contract": "contracts/BVS_Funding.sol:BVS_Funding",
            "label": "exists",
            "offset": 1,
            "slot": "3",
            "type": "t_bool"
          }
        ],
        "numberOfBytes": "128"
      },
      "t_uint256": {
        "encoding": "inplace",
        "label": "uint256",
        "numberOfBytes": "32"
      }
    }
  }
}